:020000040800F2
:10000000D00A00204901000823350008CD29000846
:100010001F350008DD140008FB5600080000000032
:10002000000000000000000000000000254500085E
:10003000891A000800000000B93900083F4700088D
:100040006301000863010008630100086301000800
:1000500063010008630100086301000863010008F0
:1000600063010008630100086301000863010008E0
:1000700063010008630100086301000863010008D0
:1000800063010008630100086301000863010008C0
:1000900063010008630100086301000863010008B0
:1000A00063010008630100086301000863010008A0
:1000B000694A0008294B0008414B00086301000809
:1000C0006301000863010008630100086301000880
:1000D0006301000871540008B5540008630100086A
:1000E000B11A0008630100086301000863010008F9
:1000F0006301000863010008630100086301000850
:10010000630100086301000863010008630100083F
:100110006301000835540008594B000863010008CA
:10012000630100086301000863010008630100081F
:10013000DFF810D000F054FD004800478D7E000825
:10014000AFF30080D00A00200648804706480047E9
:10015000FEE7FEE7FEE7FEE7FEE7FEE7FEE7FEE777
:10016000FEE7FEE741470008310100082DE9F041B4
:100170000024061B254671F1000605DA012400273C
:10018000D0EB070067EB0101161E73F1000605DADC
:100190000027D2EB0702012567EB030300F094FB75
:1001A00086460E4617469C46AC4204D00025D0EB4E
:1001B000050E65EB010624B10020D2EB000760EBD1
:1001C000030C704631463A466346BDE8F08140EA8A
:1001D00001039B0703D009E008C9121F08C0042AC5
:1001E000FAD203E011F8013B00F8013B521EF9D2AC
:1001F0007047D2B201E000F8012B491EFBD27047D4
:100200000022F6E710B513460A4604461946FFF7E2
:10021000F0FF204610BD421E12F8013F002BFBD11B
:1002200011F8013B02F8013B002BF9D17047421C49
:1002300010F8011B0029FBD1801A704730B5044625
:100240000020034600E05B1C934203D2E05CCD5CDF
:10025000401BF8D030BDF0B480EA0102D40F420058
:10026000B2EB410F02D20246084611464A0042D084
:10027000C30DDDB2C1F3C752AD1A202D35DAC1F37B
:10028000160141F4000204B15242C5F1200602FAFF
:1002900006F12A411044B3EBD05F23D0C4B1012D45
:1002A000A0EBC35009DCF0BC4FF0004202EAC3529D
:1002B000DBB200F5000000F0C0BB400000F1807030
:1002C00000EBC350A0F1807040EAD170490009E012
:1002D000490841EAC071A0EBC35000F50000400896
:1002E00000EBC350F0BC00F09FBB6142012202EB67
:1002F0004101001BF6E7F0BC704781F00041AAE71E
:1003000080F00040A7E780EA010210B502F0004348
:10031000400022D04A001FD0010E01EB1261C0F351
:100320005600C2F3560240F4000042F40002A0FB63
:10033000022000047F39140400D0401C50EA12400F
:1003400001D44000491EC2B20C0604EBD010401C80
:100350004008802A02D003E0002010BD20F00100F8
:10036000002900DA0020184310BD30B480EA0102F1
:1003700002F0004530F0004221F0004013D090B16F
:10038000C30DD40DC2F31601C0F31600E41A41F4F4
:10039000000140F400027D34914201D3641C00E06E
:1003A0004900002C02DA30BC002070474FF40000F6
:1003B0000023914201D3891A034340084FEA4101C7
:1003C000F7D151B1914202D14FF0004105E002D284
:1003D0004FF0010101E06FF0010103EBC45028442C
:1003E00030BC00F021BB2DE9FE4F804681EA0300BE
:1003F000C00F0C46009021F0004123F00045B8EBFF
:100400000200A94105D24046214690461C460B46B3
:10041000024623F00040104347D0270DC7F30A00DF
:10042000C3F30A510290401A019040286BDAC3F3DB
:10043000130040F4801B0098924620B10023D2EBB9
:10044000030A63EB0B0B01985946C0F1400250467A
:1004500000F06BFA06460D4650465946019A00F0E8
:1004600083FA10EB08006141002487EA115284EA04
:10047000E7731A4340D0009A62B3019A012A4FEA07
:10048000075215DC001B61EB02014FF0004202EA4B
:100490000752CDE90042001C41F5801132462B463F
:1004A00000F008FB03B0BDE8F08F40462146F9E7B5
:1004B000001B61EB0201001C41F5801300185B4139
:1004C0002018A2F5001747EB030140EAD570B619D2
:1004D0006D4111E06D084FEA360645EAC0754FEAF6
:1004E0000752001B61EB0201001C41F58011490815
:1004F0004FEA30000019514132462B4603B0BDE8A7
:10050000F04F00F0C8BA0098012240000023D0EB61
:10051000020263EBE073009821464FEAE074B8EB07
:10052000000061EB0401E9E783F000435BE781F041
:10053000004158E72DE9FE4F81EA030404F000442E
:1005400021F0004100944FF0000B23F0004350EAEB
:1005500001045ED052EA03045BD0C3F30A54C1F332
:100560000A552C44A4F2F3340194A0FB0254C1F3C5
:10057000130141F48011C3F3130343F4801301FB0F
:10058000024400FB034E840A970A44EA815447EA76
:100590008357A4FB076802958D0A05FB07854FEA80
:1005A000932C04FB0C542705029D4FEA065847EA9A
:1005B0001637B5EB08056EEB070C870E920E47EA6F
:1005C000811742EA8312A7FB0201B6EB0B0164EB31
:1005D00000042B0D43EA0C335E1844EB1C50DA4642
:1005E0005146E7FB0201C5F313044FEA0B3343EA1C
:1005F00014534FEA0432019C43EA0603A4F10C04AD
:100600000294009CCDE900B400F054FA03B0BDE8B8
:10061000F08F00200146F9E72DE9F04D81EA03044F
:1006200004F0004B21F0004514464FF0000A23F07F
:10063000004150EA050220D054EA01021DD0C5F362
:100640000A570246C5F31303C1F31300C1F30A5658
:1006500040F4801543F48013A7EB0608101BD64620
:1006600008F2FD3873EB050002D308F1010801E040
:1006700092185B41B8F1000F03DA00200146BDE893
:10068000F08D00204FF48011064684460EE0171BC3
:1006900073EB050705D3121B63EB050306434CEA16
:1006A000010C49084FEA300092185B4150EA0107FB
:1006B000EDD152EA030012D082EA040083EA050178
:1006C000084305D0101BAB4106D20122002306E0EF
:1006D00000224FF0004302E06FF0010253101AEBCA
:1006E00006004CEB085110EB0A0041EB0B01BDE892
:1006F000F04D00F0D0B9C10F80EAE0700844CA079D
:100700009623002100F099B996230022114600F0AB
:1007100094B90EB5C10F80EAE0700844CA07002101
:1007200040F233438DE80E000A460B4600F0C2F952
:1007300003B000BD0EB540F2334102910021CDE976
:1007400000110A460B4600F0B5F903B000BD00F0F9
:10075000004220F00040C10DC0F3160040F400003C
:100760007F2901DA00207047962903DCC1F1960148
:10077000C84001E096398840002AF4D040427047D2
:1007800020F00040C10DC0F3160040F400007F29A6
:1007900001DA00207047962903DCC1F19601C840B8
:1007A000704796398840704770B5C1F30A5201F01E
:1007B00000450024C1F3130140F2FF3341F48011DE
:1007C0009A4201DA002070BD40F233439A42A2F20D
:1007D000334203DC524200F0B7F800E090402C4373
:1007E000F1D0404270BD00F0004230F000400AD02D
:1007F000C10D01F56071C0F3160042EA0151C20853
:1008000040071143704700200146704730B5041E71
:1008100071F1000404DB4FF00044404264EB01013D
:10082000141E73F1000405DB1C464FF000435242D6
:1008300063EB04038B4208BF824230BD01F00043EA
:1008400030B421F0004150EA010206D00A0DA2F5B1
:100850006072C1F31301002A02DC30BC0020704733
:10086000440F44EAC104C100E01830BC00EBC250A0
:1008700000F0DAB8002801DBC0F10040002901DBFC
:10088000C1F1004181427047002801DBC0F1004006
:10089000002901DBC1F100418842704730B50B46A9
:1008A000014600202022012409E021FA02F59D42A0
:1008B00005D303FA02F5491B04FA02F52844151E74
:1008C000A2F10102F1DC30BD2DE9F05F0546002008
:1008D00092469B4688460646814640241BE02846B1
:1008E00041464746224600F02FF853465A46C01A62
:1008F000914110D311461846224600F016F82D1AE1
:1009000067EB01084F4622460120002100F00DF858
:1009100017EB00094E41201EA4F10104DFDC48461C
:1009200031462A464346BDE8F09F202A04DB203AA0
:1009300000FA02F1002070479140C2F1200320FA32
:1009400003F3194390407047202A04DB203A21FA30
:1009500002F00021704721FA02F3D040C2F12002D8
:100960009140084319467047202A06DBCB17203AEE
:1009700041FA02F043EAE07306E041FA02F3D040A4
:10098000C2F1200291400843194670470FB400237A
:1009900000B589B00CA900910B996FF00042CB60B3
:1009A0001E4B06931E4B07930423CDE901321D4ACB
:1009B000089202466B46002000F0BEF909B05DF8CF
:1009C00014FB70B586B006464FF0FF300091CDE9BC
:1009D0000101002015460C4604903246694604A8E1
:1009E000FFF7D4FF02460498211825B108B1084644
:1009F00000E020462860049800280DD0002A02DD7F
:100A00000098884208D0081B0094CDE901043246C2
:100A1000694604A8FFF7BAFF06B070BD710F000861
:100A20008F0F0008050C00080029A8BF7047401C64
:100A3000490008BF20F00100704710B4B0FA80FCF4
:100A400000FA0CF050EA010404BF10BC704749B131
:100A5000CCF1200421FA04F411FA0CF118BF0121A1
:100A600021430843A3EB0C01CB1D4FEA00614FEA81
:100A7000102042BF002010BC704700EBC350104450
:100A80000029A4BF10BC7047401C490008BF20F0DB
:100A9000010010BC704710B5141E73F1000408DA91
:100AA000401C41F1000192185B411A4301D120F032
:100AB000010010BD2DE9F04D92469B4611B1B1FAEF
:100AC00081F202E0B0FA80F220329046FFF72DFF6B
:100AD00004460F4640EA0A0041EA0B0153465A46D3
:100AE000084313D0114653EA010019D0C8F140025F
:100AF0005046FFF729FF05460E46504659464246E6
:100B0000FFF713FF084305D0012004E020463946D3
:100B1000BDE8F08D0020054346EAE0762C433743DC
:100B20000A986305E40AA0EB08000022FD0A44EAE3
:100B300047540A3002D500200146E9E701051019A3
:100B40006941DDE9084500196941BDE8F04DA2E7BA
:100B500070B521F0004303430CD0C1F30A550024C3
:100B6000D5EB040564EB0403D617AD1AB34102DBE1
:100B70000020014670BD201841EB025170BDC1F349
:100B80000A52C1F3130140F2FF3341F480119A423B
:100B900002DA00200146704740F233439A42A2F243
:100BA000334202DC5242FFF7CFBEFFF7BEBE000069
:100BB00030B5041E71F1000404DB4FF000444042E4
:100BC00064EB0101141E73F1000405DB1C464FF0B9
:100BD0000043524263EB0403994208BF904230BD88
:100BE000064C074D06E0E06840F0010394E807007A
:100BF00098471034AC42F6D3FFF79EFA18C90008A4
:100C000038C90008C0B24FF4F05100F023BA000018
:100C10002DE9FF4F087883B09946FF2805D0491C7D
:100C20002D2804D00024002008E000200BE001243F
:100C3000F9E700EB800003EB4000491C0B78FF2B29
:100C4000F7D104B1404200230293147819461D469F
:100C50002D2C01D02B2C04D1521C2D2C13D0002470
:100C60000294AA461478FF2C0FD00A25A3FB05781E
:100C700001FB05814FF0000C03FB0C11521CE31922
:100C80004AEB0101EEE70124EAE7814453EA01005F
:100C900002D019F5C87F06DA03980021C0E90011D7
:100CA00007B0BDE8F08F0025AE4E2F46DFF8B882C2
:100CB000184600F0E3F9CDE90001B9F1000002DACD
:100CC000C9F1000400E004460023A74A1AEB030B15
:100CD00042EB045A12E0E00707D02A463346384672
:100CE0004146FFF727FC074688462A46334610460A
:100CF0001946FFF71FFC05460E466410002CEAD18A
:100D0000DDE90001B9F1000F5A46534606DAFFF754
:100D100083FC3A464346FFF77FFC05E0FFF70AFCF9
:100D20003A464346FFF706FC029A0AB181F00041B9
:100D3000039AC2E90001B3E72DE9FF4F1F468DB0CA
:100D4000D7E901464FF0FF382E2045464FF0000905
:100D50000B90B9696D1C0E988847396A824688479E
:100D60000028F6D1BAF1FF3F0AD024F4D064002E57
:100D700011DDBAF12B0F08D0BAF12D0F0BD102E023
:100D8000404611B08DE744F48064B9696D1C0E983B
:100D900088478246761E6946600501D52D2000E011
:100DA0002B208DF8000001F1010B0DF1200809E066
:100DB000B9696D1C0E98884782460F9844F40074F8
:100DC000761E0560002E02DDBAF1300FF0D00B99CF
:100DD0008A453ED144F0800406E00F99681CA9F1D1
:100DE000010944F400740860B9696D1C761E0E9800
:100DF000884782463028F0D02BE00B998A4505D1F0
:100E0000200603D444F08004761E18E0504604F017
:100E1000F5FD08B30DF11301761E44F400748B4503
:100E200008D2AAF130000BF8010B200607D5A9F172
:100E3000010003E0200602D409F101008146A0056B
:100E400002D50F99681C0860B9696D1C0E98884717
:100E50008246002ED1DC53E0002E51DDBAF1650F41
:100E600002D0BAF1450F4BD1A00549D5B9696D1C27
:100E700024F44074761E0E9888478246002E0CDDBE
:100E80002B2804D0BAF12D0F07D144F48074B9692E
:100E90006D1C0E9888478246761EE00501D52D21EF
:100EA00000E02B2108F8011BCDF82C8021E00DF18A
:100EB0002901761E44F4007488450CD2AAF1300052
:100EC00010F0FF0088F8000002D10B99884509D97D
:100ED00008F1010806E0E00501D5244801E042F2EE
:100EE0000F708146B9696D1C0E98884782460F982D
:100EF0000560002E04DD504604F080FD0028D6D1A8
:100F0000F9690E988847FF208BF8000088F80000E8
:100F10000020069007904B466A4608A906A8FFF7EE
:100F200077FEA00502D46FF001002AE714F0240F29
:100F30000AD0E00714D1DDE906123868031D3B60D2
:100F40000068C0E900120BE0DDE90601FFF776FC5E
:100F50000146E00704D13868021D3A60006801606C
:100F600028460EE7000014400000F03FF1D8FFFFD4
:100F7000426842B1016811F8013B23B1521EC0E939
:100F80000012184670470121C160881E70474268F0
:100F90005AB1C368016843B983688B4205D0491EC2
:100FA000521CC0E90012002070474FF0FF3070471C
:100FB0002DE9F04D00231A461B1A8A4103DB00205D
:100FC0000146BDE8F08DC1F30A52C1F3130141F4AB
:100FD00080154FF0000BD10702D100186D41521E51
:100FE0000027044640F2FF11384601EB620A3E46F4
:100FF0008046024600204FF48011FFF7A5FCC2197D
:101000007141BB1846EB0100B4EB030C75EB000C0F
:1010100004D3E41A65EB000517460E46241908F1BF
:1010200001006D4180463428E3DDF91946EB0600E6
:10103000091BA84103D24FF0FF32134601E0002202
:1010400013461BEB070046EB0A51BDE8F04DFFF7D6
:1010500022BD00007F2801D9002208E0064A02EBE9
:101060005002C007127800D1120902F00F020120CD
:10107000904008407047000088C800080EB540F254
:10108000334202920022CDE900221346FFF712FDFF
:1010900003B000BD70B58C1810F8015B15F00703A4
:1010A00001D110F8013B2A1106D110F8012B03E001
:1010B00010F8016B01F8016B5B1EF9D12B0705D409
:1010C0000023521E0DD401F8013BFAE710F8013B52
:1010D000CB1A921C03E013F8015B01F8015B521E6E
:1010E000F9D5A142D8D3002070BD21B1826842F069
:1010F0000102826003E0826822F001028260704790
:1011000010B504461248844208D10121401502F06E
:10111000D9FE0021601502F0D5FE17E00D4884428B
:1011200008D10121001502F0CDFE0021201502F0AA
:10113000C9FE0BE00848844208D10121C80302F02F
:10114000C1FE00214FF4004002F0BCFE10BD0000C3
:101150000024014000280140003C014001460020DD
:101160008A6802F004020AB1012000E00020704702
:101170000146C86C80B270470246002013680B40DD
:101180000BB1012000E000207047014600208A6872
:1011900002F008020AB1012000E0002070470000C0
:1011A00030B502460020002350680F4C20400D79D6
:1011B0000C6844EA05242043506090680B4C2040A2
:1011C000D1E902542C434D7944EA45042043906010
:1011D000D06A20F470000C7C641EE4B2234340EA21
:1011E0000350D06230BD0000FFFEF0FFFDF7F1FFBD
:1011F000F0B504460D4600200021092D11DDE06800
:10120000A5F10A0606EB4607072606FA07F188430A
:10121000A5F10A0606EB460603FA06F10843E0606C
:101220000CE0206905EB4507072606FA07F188431D
:1012300005EB450603FA06F108432061072A0FDA99
:10124000606B561E06EB86071F2606FA07F18843D9
:10125000561E06EB860605FA06F10843606322E097
:101260000D2A0FDA206BD61F06EB86071F2606FA1B
:1012700007F18843D61F06EB860605FA06F10843F8
:10128000206310E0E06AA2F10D0606EB86071F2638
:1012900006FA07F18843A2F10D0606EB860605FA69
:1012A00006F10843E062F0BD816841F00801816009
:1012B000704721B1826842F4A002826003E0826834
:1012C00022F4A00282607047816841F004018160CD
:1012D000704700001648007840B11548007807288C
:1012E00004D013480078082800D0704711480068DF
:1012F00000B9FAE70F480068142807D90D480068BC
:10130000642803D207200A4908700FE009480068E2
:10131000F02808D907480068B0F5967F03D2082066
:101320000349087002E000200149087000BFDCE7B3
:1013300094010020D000002008B50121102002F007
:10134000B1FD4FF47070ADF8000018208DF8030067
:1013500003208DF802006946014800F0D5FF08BD62
:101360000010014030B587B005460C460121480306
:1013700002F098FD254803F0B1FC681E80B2ADF87C
:101380001400ADF810400020ADF81600ADF81200C2
:1013900004A91E4803F0BAFF6020ADF80000012048
:1013A000ADF802000020ADF80600ADF8080069466F
:1013B000164803F021FE6946144803F073FE69469F
:1013C000124803F0CFFE6946104803F025FF0121C3
:1013D0000E4803F073FC08210C4803F059FE082165
:1013E0000A4803F0B1FE0821084803F00BFF08216A
:1013F000064803F04FFF0121044803F041FC01219E
:10140000024803F04FFC07B030BD0000003401403B
:1014100070B504464FF47A750723012221460B4824
:10142000FFF7E6FE01210948FFF743FF00BF022155
:101430000648FFF7A1FE20B9281EA5F101018DB2D3
:10144000F5D10248FFF794FE70BD00000024014072
:1014500000B587B001214FF4017002F023FD4FF475
:10146000004002F0F3FC2020ADF8040000208DF8CD
:10147000070001A9174800F047FF1748FFF740FE93
:10148000002002908DF80C008DF80D004FF46020C4
:1014900004900020059001208DF8180002A90E4844
:1014A000FFF77EFE01210C48FFF71FFE0A48FFF7F9
:1014B000FBFE00BF0848FFF768FE0028FAD1064887
:1014C000FFF702FF00BF0448FFF748FE0028FAD1EB
:1014D00007B000BD000801400024014000BFFEE746
:1014E0002DE9F0478648006801287DD185480468C9
:1014F00085480568854986480068FEF736FF8549B6
:101500000860854800688549086085480068FFF7DD
:1015100011F906460022834BFFF77EF88146FFF75C
:101520008DF9804650218048FEF76AFE7E487FA1F3
:10153000096801600A217E48FEF762FE7D480021AD
:101540000160416001810A217B48FEF759FE7B481A
:1015500000210160416001810A217948FEF750FEB7
:101560007848002101604160018177492046FFF7FA
:1015700081F90FD875492046FFF786F90AD8204629
:10158000FFF731F9064632460B4671A1684804F070
:10159000C7F801E0BDE8F0876B492846FFF76AF914
:1015A0000FD86A492846FFF76FF90AD82846FFF78F
:1015B0001AF9064632460B4665A15E4804F0B0F8BB
:1015C00000E0E7E7644953480068FFF75DF913D28C
:1015D000624950480068FFF74DF90DD24D48006848
:1015E000FFF701F9064600E088E032460B4658A1B5
:1015F000514804F095F800E0CCE7594947480068A5
:10160000FFF742F911D2574944480068FFF732F911
:101610000BD242480068FFF7E6F8064632460B4612
:101620004BA1464804F07CF800E0B3E700214046B7
:10163000FFF72AF90FD84B494046FFF71BF90AD2AA
:101640004046FFF7D0F8064632460B4640A13C48DC
:1016500004F066F800E09DE7002143480068FFF7CA
:1016600013F911D8414940480068FFF703F90BD23C
:101670003D480068FFF7B7F8064632460B4634A1EE
:10168000304804F04DF800E084E729492648FEF789
:10169000C2FD37A12448FEF7BEFD26492248FEF7C9
:1016A000BAFD34A12048FEF7B6FD23491E48FEF7D7
:1016B000B2FD31A11C48FEF7AEFD20491A48FEF7E5
:1016C000AAFD2EA11848FEF7A6FD1D491648FEF7F3
:1016D000A2FD2CA11448FEF79EFD1A491248FEF700
:1016E0009AFD29A11048FEF796FD50212748FEF7E4
:1016F00087FD50220C492548FEF769FD00BF49E7E8
:10170000800100203C010020400100200000C84270
:101710001C000020C801002008000020CC0100208F
:10172000D000002000002440EC040020244C56008F
:101730008C05002096050020A0050020AA050020A9
:10174000B4050020BE05002000007A4400007AC4E1
:1017500025332E32660000000000FAC40000FA446F
:1017600000401CC600401C46340100200000A0417F
:101770002C5256002C4143002C4759002C43534215
:10178000000000002C565400230000003C050020FF
:101790002DE9F05F05460C46124E134801682046BD
:1017A000FEF7B1FD8346114801685846FEF753FD28
:1017B000804631464FF07E50FEF79FFD82464146FF
:1017C000FEF7A1FD074631462846FEF79CFD8146FF
:1017D0003946FEF740FD0549086008460068BDE847
:1017E000F09F00000AD7A33C000200204002002026
:1017F0002DE9F05F05460C46124E1348016820465D
:10180000FEF781FD8346114801685846FEF723FD27
:10181000804631464FF07E50FEF76FFD82464146CE
:10182000FEF771FD074631462846FEF76CFD8146FE
:101830003946FEF710FD0549086008460068BDE816
:10184000F09F00000AD7A33C000200208002002085
:101850000146072323EA01021202054B18684FF6DE
:10186000FF031840034B18431043014B18607047A7
:101870000CED00E00000FA0538B5002000906B4642
:1018800001227521682006F023FA2CA003F038FF0E
:101890009DF8000068280ED000BF3148006800F4B1
:1018A000E06030490843001D2D490860BFF34F8FA9
:1018B00000BF00BFFEE706F067FC00283CD178209F
:1018C00007F06CFA10B91DA003F01AFF782006F09B
:1018D00049FB10B924A003F013FFC82007F010FA49
:1018E00010B92BA003F00CFF05F068FA10B932A074
:1018F00003F006FF3D4806F08DFA044605F0B8FCFB
:1019000010B93BA003F0FCFE40F2731005F0FEF8A6
:1019100010B941A003F0F4FEC82005F0D9FB10B9BE
:1019200047A003F0EDFE07F06DFB012007F0E4F89F
:1019300010B94CA003F0E4FE38BD00006D70755F77
:101940007365745F73656E736F7220636F6D706C17
:10195000657465202E2E2E2E2E2E0D0A00000000FE
:101960000CED00E00000FA056D70755F636F6E6648
:1019700069677572655F6669666F20636F6D706C0D
:10198000657465202E2E2E2E2E2E0D0A00000000CE
:101990006D70755F7365745F73616D706C655F7298
:1019A00061746520636F6D706C657465202E2E2EDA
:1019B0002E2E2E0D0A000000646D705F6C6F616446
:1019C0005F6D6F74696F6E5F6472697665725F6672
:1019D00069726D7761726520636F6D706C65746597
:1019E000202E2E2E2E2E2E0D0A0000008800002004
:1019F000646D705F7365745F6F7269656E74617436
:101A0000696F6E20636F6D706C657465202E2E2E6D
:101A10002E2E2E0D0A000000646D705F656E6162EF
:101A20006C655F6665617475726520636F6D706C5F
:101A3000657465202E2E2E2E2E2E0D0A000000001D
:101A4000646D705F7365745F6669666F5F72617401
:101A50006520636F6D706C657465202E2E2E2E2EA2
:101A60002E0D0A006D70755F7365745F646D705F35
:101A7000737461746520636F6D706C657465202E7E
:101A80002E2E2E2E2E0D0A00704701B500200AE0E2
:101A9000002001E0411CC8B20A28FBDB9DF80010C1
:101AA000491EC9B200919DF800100029F0D108BD6F
:101AB0002DE9F04F8BB0FE48006800287ED14FF42E
:101AC0008050FC490860FC48007800F0B1FC002020
:101AD00002F0A0FB0446012002F09CFBC0F10009CB
:101AE0004946204600F0ECFE04EB090A0AEBDA71E5
:101AF0004810FEF70EFEF14AF14BCDE90201FEF768
:101B000019FD07460022EF4BFEF714FD0022EE4BB5
:101B1000CDE90401FEF780FD0022EC4BCDE9060182
:101B2000FEF77AFD05460022E94BFEF703FDCDE9FD
:101B30000801FEF783FEE749086008460068FEF7E3
:101B400052FE07460022E24BFEF766FD82468B46B8
:101B5000E1480068FEF747FE054652465B46FEF741
:101B600042FCCDE90801FEF769FEDB490860DB496C
:101B7000DB480068FEF7F9FB8246FEF734FE0746B5
:101B8000CE4ACF4BFEF7D6FC0546FEF757FED549A9
:101B90000860D5480168D3480068FEF7AEFB82466E
:101BA000FEF721FE07460022C94BFEF7C3FC05469F
:101BB000FEF744FECD490860CA4800E078E20068BC
:101BC000C9490860A9EB0400FEF7A3FD07460022FF
:101BD000C74BFEF721FD0022BB4BCDE90001FEF70C
:101BE0001BFDB64AB64BCDE90201FEF7A3FC00226D
:101BF000B44BCDE90401FEF79DFC0022B24BCDE9C8
:101C00000601FEF709FD0022B04BCDE90801FEF701
:101C100003FD05460022AE4BFEF78CFC8246FEF724
:101C20000DFEB449086008460068FEF7DCFD00229E
:101C3000A74BCDE90801FEF7EFFC07468846AE4802
:101C40000068FEF7D0FD82463A464346FEF7CBFBDE
:101C50000546FEF7F3FDA8490860A848007801286A
:101C600007D14FF07C50A649086000209A490860CF
:101C7000AAE0A2480078022812D1A248A049086030
:101C8000A1480078FEF740FD054629469C480068BB
:101C9000FEF76BFB9A49086000208F49086093E0CB
:101CA00096480078032812D19848994908609648C8
:101CB0000078FEF729FD0546294695480068FEF79D
:101CC00054FB9349086000208B4908607CE08B48F6
:101CD0000078042813D14FF081408D4908608A486C
:101CE0000078FEF711FD0546294689480068FEF791
:101CF0003CFB8749086000207F49086064E07F481A
:101D00000078052817D18148814908607E4800780D
:101D1000FEF7FAFC054629467D480068FEF725FBDC
:101D20007B4908600020744908607A487A49086055
:101D30007A49086048E071480078062818D14FF0C9
:101D400081407349086070480078FEF7DDFC054665
:101D500029466F480068FEF708FB6D4908600020BF
:101D6000654908606B486C4908606C4908602BE065
:101D70006248007808280BD14FF07C506049086019
:101D800000205549086064490860644908601BE008
:101D90005A48007807280AD161485949086000204C
:101DA0004D4908605C4908605C4908600CE000200F
:101DB00053490860564908605A4800685649086007
:101DC0005948006855490860514801684948006809
:101DD000FEF793FA0746514801683846FEF793FA32
:101DE0000546454801684C480068FEF78CFA0990A2
:101DF0003E4801684D480068FEF785FA08904C4857
:101E0000016838480068FEF778FA07904948016889
:101E10000798FEF778FA8246394801682D4800682D
:101E2000FEF76BFA0590444801680598FEF76BFAD7
:101E300007902948016841480068FEF764FA069057
:101E40000799FEF708FA83465146FEF704FA8046E2
:101E50000899FEF700FA07460999FEF7FCF90646CD
:101E60002946FEF7F8F980F0004035490860284817
:101E7000016820480068FEF740FA074627480168D5
:101E80003846FEF740FA05461B48016822480068BC
:101E9000FEF739FA09901548016824480068FEF7F2
:101EA00032FA0890224801680E4800684AE00000B3
:101EB000300121421404014000000020F1D4C85335
:101EC000FB21094000C0504000408F400060984016
:101ED00000006940DC000020D800002000003443EE
:101EE00004000020E0000020F0000020E4000020BA
:101EF00000206440EC000020E80000209401002055
:101F0000240100209A9919BF38010020000080C0E8
:101F10002C010020B7E2B24114010020180100207A
:101F20009A9999BE1C010020200100201001002078
:101F3000280100200C0100200801002004010020DD
:101F4000F4000020FEF7D9F983465B480168584643
:101F5000FEF7D9F982465948016859480068FEF7EA
:101F6000CCF90590574801680598FEF7CCF98346EF
:101F70005548016855480068FEF7C5F9594606906E
:101F8000FEF769F951460790FEF765F98046089912
:101F9000FEF761F907460999FEF7AFF906462946AB
:101FA000FEF7ABF980F000404949086049480068F5
:101FB000FEF719FC0022484BCDE90201FEF72CFB8D
:101FC00082468B463E480068FEF70DFC05465246A9
:101FD0005B46FEF708FA0746884640480068FEF769
:101FE00002FC3A464346CDE90401FEF7A3FACDE9E7
:101FF0000601FEF7D9FB0990FEF77DFB3849086022
:1020000033480068FEF7EFFB0022334BCDE90201B5
:10201000FEF702FBCDE9040129480068FEF7E3FB67
:102020008246DDE90423FEF7DEF9074688462B48A1
:102030000068FEF7D8FB3A464346CDE90601FEF7B5
:1020400079FA0546FEF7B0FB0990FEF754FB2549E7
:10205000086023480068FEF77AFB0546224A514291
:1020600001F0A1FC214908601E480068FEF76FFBE3
:1020700005461D4A514201F096FC1D4908601B4867
:10208000006801F083FC194908601948006801F0F4
:102090007DFC17490860174801681748006803F07D
:1020A00091F928B9124801681048006802F0D0FA86
:1020B0000BB0BDE8F08F00000C01002024010020CF
:1020C000DC00002008010020D800002004010020CE
:1020D000F8000020F40000200000694030010020DA
:1020E000FC00002000010020D8F5FFFF10000020B8
:1020F00014000020340100200400002000212349A6
:102100008279002A3AD00A46126803689A430B463D
:102110001A600A1D126803689A430B1D1A6002793F
:1021200011440A6803681A430A60184A08321268A0
:1021300003689A43154B08331A601A1D1268036826
:102140009A43124B0C331A604279102A0ED11A1F8F
:10215000126803681A430D4B08331A601A1D12687F
:1021600003681A43094B0C331A600DE007494279A2
:1021700011440A6803681A430A6005E002791144B1
:102180000A6803689A430A6070470000000401402F
:1021900000B587B00121022001F064FE0121042076
:1021A00001F080FEC020ADF8000004208DF803008F
:1021B00069461C4800F0A8F804A803F0F9F80020CC
:1021C000ADF810004FF6FF70ADF814000020ADF828
:1021D0001600ADF8120004A9134803F097F8002385
:1021E0001A460321104802F06DFE01A802F0F2FE2B
:1021F0000A20ADF80C0001A90B4802F095FE012160
:10220000094802F049FD01221146074802F0EBFEA1
:102210000021054803F04BF80121034802F042FD7C
:1022200007B000BD000801400004004000B587B0C1
:102230000121042001F016FE0121082001F032FEE8
:10224000C020ADF8000004208DF8030069461C484A
:1022500000F05AF804A803F0ABF80020ADF8100025
:102260004FF6FF70ADF814000020ADF81600ADF881
:10227000120004A9134803F049F800231A46032169
:10228000104802F01FFE01A802F0A4FE0A20ADF8DB
:102290000C0001A90B4802F047FE0121094802F099
:1022A000FBFC01221146074802F09DFE0021054873
:1022B00002F0FDFF0121034802F0F4FC07B000BD6D
:1022C000000C01400008004030B500228B071C0FB5
:1022D0000F2303FA04F20B4B8C1053F82430934372
:1022E000084C8D1044F8253023468C1053F82430C8
:1022F0008C07240F00FA04F42343024C8D1044F899
:10230000253030BD080001402DE9F041024600258E
:102310000026002000230024002791F803C00CF0C1
:102320000F0591F803C00CF0100CBCF1000F03D0A6
:1023300091F802C04CEA050591F800C0BCF1000F0D
:1023400031D0146800202BE04FF0010C0CFA00F3A0
:10235000B1F800C00CEA03069E4220D183004FF082
:102360000F0C0CFA03F7BC4305FA03FC4CEA040417
:1023700091F803C0BCF1280F06D14FF0010C0CFA04
:1023800000FCC2F814C00AE091F803C0BCF1480F89
:1023900005D14FF0010C0CFA00FCC2F810C0401C33
:1023A0000828D1D31460B1F800C0BCF1FF0F34DDB0
:1023B000546800202EE000F1080C4FF0010808FAE4
:1023C0000CF3B1F800C00CEA03069E4221D1830051
:1023D0004FF00F0C0CFA03F7BC4305FA03FC4CEA70
:1023E000040491F803C0BCF1280F05D100F1080CDA
:1023F00008FA0CF8C2F8148091F803C0BCF1480F39
:1024000007D100F1080C4FF0010808FA0CF8C2F8E7
:102410001080401C0828CED35460BDE8F0810246ED
:10242000002093680B400BB1012000E000207047B2
:102430002DE9F04F91B0804601F008FFE2490860B5
:10244000B8F1010F1BD101F0B7FDE0480068E04989
:102450000860E049B1F90000FEF74DF9DE49086077
:10246000DC49B1F90400FEF746F9DC490860DC49B3
:10247000B1F90400FEF73FF9DA490860A1E144210F
:10248000D02000F0A5FA83464321D02000F0A0FA26
:102490000BEB00200990FEF72EF906464621D020CE
:1024A00000F096FA83464521D02000F091FA0BEB1C
:1024B00000200990FEF71FF90A904821D02000F073
:1024C00087FA83464721D02000F082FA0BEB0020E8
:1024D0000990FEF710F907463C21D02000F078FA69
:1024E00083463B21D02000F073FA0BEB00200990CB
:1024F000FEF701F90D903E21D02000F069FA8346E5
:102500003D21D02000F064FA0BEB00200990FEF78B
:10251000F2F882464021D02000F05AFA83463F214B
:10252000D02000F055FA0BEB00200990FEF7E3F8FD
:1025300005464FF08E413046FEF7A6F905D24FF022
:102540008F413046FDF7D9FE06464FF08E410A987E
:10255000FEF79AF905D24FF08F410A98FDF7CDFEAC
:102560000A904FF08E413846FEF78EF905D24FF0B3
:102570008F413846FDF7C1FE07464FF08E410D985A
:10258000FEF782F905D24FF08F410D98FDF7B5FEA9
:102590000D904FF08E415046FEF776F905D24FF080
:1025A0008F415046FDF7A9FE82464FF08E412846E6
:1025B000FEF76AF905D24FF08F412846FDF79DFEE0
:1025C000054686F00040844908600D98FEF70BF937
:1025D000854A864BCDE90601FEF71EF8CDE90801D4
:1025E000FEF72CF910905046FEF7FDF87E4A7F4B1F
:1025F000CDE90601FEF710F8CDE90801FEF71EF956
:102600000F902846FEF7EFF8774A784BCDE90601A0
:10261000FEF702F8CDE90801FEF710F90E903046FA
:10262000FEF7E1F84FF06632714BCDE90601FDF798
:10263000F3FFCDE90801FEF701F981460A98FEF79C
:10264000D2F84FF066326A4BCDE90601FDF7E4FFA0
:10265000CDE90801FEF7F2F8044666480078022842
:1026600037D189F0004002460390DDE90E1000F0FA
:10267000D1FB8346FEF7B7F85F4A604BCDE9040112
:10268000FDF7CAFF00225E4BCDE90601FDF752FFC0
:10269000CDE90801FEF7D2F84C49086022460E99B0
:1026A000109800F013FD8346FEF79DF8524A534BF5
:1026B000CDE90401FDF7B0FF0022514BCDE9060141
:1026C000FDF738FFCDE90801FEF7B8F84D4908607D
:1026D0006FE04848007803286BD12846FEF783F85E
:1026E000CDE902015046FEF77EF8CDE90001DDE9B3
:1026F000022303F0AFFF0022414BCDE90401FDF7B7
:1027000019FF3D4A3D4BCDE90601FDF785FFCDE9B7
:102710000801FEF793F80C902846FEF764F8CDE91F
:1027200002010D98FEF75FF8CDE90001DDE9022313
:1027300003F090FF0022324BCDE90401FDF7FAFED1
:102740002D4A2E4BCDE90601FDF766FFCDE90801C4
:10275000FEF774F80B903046FEF745F84FF06632FE
:10276000294BCDE90601FDF757FFCDE90801FEF73A
:1027700065F8834659460C98FFF70AF880F0004048
:10278000124908600A98FEF72EF84FF066321E4B89
:10279000CDE90601FDF740FFCDE90801FEF74EF84F
:1027A000834659460B98FFF723F880F000401549FF
:1027B000086006480068064908600848076009483C
:1027C000056011B0BDE8F08F1800002070000020F7
:1027D000040000205C000020080000200C00002005
:1027E000620000201C0000208FC2F5285C1F9A4068
:1027F000665E8D4000000020F1D4C853FB210940E3
:10280000008066406C0000206666304010B500F025
:1028100045F8044603492046FDF775FD0446204669
:1028200010BD0000C3F5804010B5012016490860B6
:102830000F2004F02FF900201449C1F8800114483A
:10284000007800F08000E8B11148007800F03F0007
:1028500010490860084600880004086008460068BF
:102860000D49098808440B49086008460068AA21F8
:1028700048434FF47A71B0FBF1F00649086000203C
:102880000349088010BD0000800121420000214260
:10289000D4000020D0000020D600002070B5052014
:1028A000FEF7B6FD05462846FDF72EFF064603490E
:1028B000FDF729FD0446204670BD00003333533A2E
:1028C0002DE9F04F87B083468A465846FDF721FF31
:1028D0000022344BCDE90001FDF72CFE0022324BE3
:1028E000CDE90201FDF798FE804600222F4BFDF74F
:1028F00093FE064600222E4BFDF78EFE0446FDF7A2
:102900009DFF05900598FDF76EFF2A4A2A4BCDE9F9
:102910000201FDF70FFE80460022284BFDF70AFE5C
:1029200006460022264BFDF777FE0446FDF786FF9C
:10293000244908605046FDF7ECFE0022194BCDE912
:102940000001FDF7F7FD06460022174BFDF764FE78
:1029500004460022154BFDF75FFE80460022144B13
:10296000FDF75AFECDE90201FDF768FF04900498D7
:10297000FDF739FF80460F4A0F4BFDF7DBFD0022C4
:102980000E4BCDE90201FDF7D5FD064600220C4BAA
:10299000FDF742FE0446FDF751FF0B49086007B002
:1029A000BDE8F08F000069400000104000003E408C
:1029B00000002640F1D4C853FB21094000C050401C
:1029C000000024403C0100204001002000BFFEE741
:1029D00070B505460E46002400F0EAF8284600F0DF
:1029E000B5F8641C00F03CF9304600F0AFF8641C08
:1029F00000F036F900F0DCF8691CC8B200F0A6F867
:102A0000641C00F02DF9002000F068F8044600F086
:102A100003F9204670BD000010B500200E49086083
:102A20000E48006820F470600C4908600846006891
:102A300040F44070086000200949C1F8A801012055
:102A400004F028F801200449086004F023F800206D
:102A50000349C1F8AC0110BDAC812142040C014016
:102A60000080214208B50121082001F01BFA4FF433
:102A70004060ADF8000010208DF8030003208DF8B1
:102A8000020069460148FFF73FFC08BD000C014009
:102A900010B500200E4908600E48006820F47060F0
:102AA0000C4908600846006840F440700860012046
:102AB0000949C1F8A80103F0EDFF012004490860AD
:102AC00003F0E8FF00200449C1F8AC0110BD00008C
:102AD000AC812142040C01400080214270B50546C2
:102AE00000241748006820F4706015490860084603
:102AF000006840F400600860002616E000201149DC
:102B00000860022003F0C6FF01200F49C1F8AC01A4
:102B10006006040E0B488438006808B1601CC4B21B
:102B2000022003F0B7FF701CC6B2082EE6DB15B119
:102B3000FFF772FF01E0FFF7ABFF204670BD00001A
:102B4000040C0140AC8121420080214270B5044652
:102B50001448006820F47060124908600846006854
:102B600040F44070086000200F490860002516E01E
:102B7000E0090D49091F08606006040E012003F0FA
:102B800089FF01200949C1F8AC0103F083FF00204F
:102B900005490860012003F07DFF681CC5B2082DBF
:102BA000E6DB70BD040C0140AC8121420080214273
:102BB00010B51648006820F4706014490860084693
:102BC000006840F440700860012011490860114815
:102BD000D0F8280108B9002010BD01200C49091DBA
:102BE000086003F057FF00200A49C1F8A80108480F
:102BF0008038006808B10020EEE7012003F04AFFAA
:102C000000200349091D08600120E5E7040C01408C
:102C1000A88121420080214210B50E48006820F4AE
:102C200070600C4908600846006840F44070086015
:102C30000020094908600949C1F8A801012003F0F2
:102C400029FF0120044908600449C1F8A80103F0E4
:102C500021FF10BD040C0140AC81214200802142C3
:102C600010B500241548006820F47060134908600E
:102C70000846006840F400600860012010490860C0
:102C800003F008FF01200F49C1F8AC0103F002FF77
:102C90000AE0601CC4B2322C03DDFFF7BDFF002048
:102CA00010BD012003F0F6FE0548803800680028BA
:102CB000EFD10349091D08600120F1E7040C014030
:102CC000A88121420080214270B505460E46144677
:102CD00031462846FFF77CFE2070012070BDF8B514
:102CE00006460F4614461D466A4639463046FFF7EB
:102CF000EBFF2DB10120A0409DF80010084305E036
:102D00000120A0409DF8001021EA0000C0B2009010
:102D10009DF800203946304600F036F8F8BD2DE920
:102D2000F8430746884614461D46089E6A464146B3
:102D30003846FFF7C9FF28B3601CFF2101FA00F0F5
:102D4000C4F108012944491EFF220A41104300F042
:102D5000FF09C5F1080006FA00F0C6B2C4F1070089
:102D600006419DF8000000EA090000909DF800006F
:102D7000304300909DF800204146384600F004F8AA
:102D8000BDE8F8830020FBE737B504460D4602ABEB
:102D900001222946204600F001F83EBD2DE9F04110
:102DA00080460D4616461F460024FFF701FF4046A9
:102DB000FFF7CCFEFFF754FF2846FFF7C7FEFFF7EB
:102DC0004FFF00BF06E0385DFFF7C0FEFFF748FF8A
:102DD000601CC4B2B442F6DBFFF71EFF0120BDE861
:102DE000F081000001464906084A926942F001025A
:102DF000064B9A61064A526822F0E062044B5A6020
:102E00001A4652680A435A60704700000010024098
:102E1000000001402DE9F04FADB0044689469246CE
:102E2000A3482B90A349D1E90023D1E90201CDE9C0
:102E30002723CDE92901CDF898A09E4B1033D3E983
:102E40000021D3E90203CDE92403CDE922219949E8
:102E5000203103C9CDE920019649283103C9CDE9C4
:102E60001E01944B30330FCB1AAD0FC59148403043
:102E7000006819908F4B4433D3E90020D3E9021343
:102E800016AD0BC515928B49543103C9CDE9130119
:102E90000020119012900F9010900B900C900D90BC
:102EA0000E900790089009900A9005900690049063
:102EB0004846FDF798FC0746884684F0004001909C
:102EC000FDF791FC3A464346CDE9020103F0C2FB0F
:102ED0000546FDF7B3FC834611A8774922AA0123D2
:102EE000CDE90021029002221146104605F0FEFFB6
:102EF0000FA826A920AA0123CDE9002102901A4695
:102F00001946022005F0F2FF0F991198FDF7A3F979
:102F10006A49086010991298FDF79DF96749486061
:102F20000BA8674922AA0223CDE9002102901A4684
:102F30001946184605F0DAFF07A815A90BAA0223BF
:102F4000CDE9002102901A461946184605F0CEFF39
:102F50001A990798FDF77FF95A4908601B99089854
:102F6000FDF779F9574948601C990998FDF773F9FD
:102F7000544988601D990A98FDF76DF95149C86058
:102F800005A81EAA0223CDE9002102901A4619467F
:102F9000012005F0ABFF04A813A905AA0123CDE980
:102FA0000021029002221146184605F09FFF199950
:102FB0000498FDF750F9054629464FF07E50FDF77D
:102FC000D4F9049011A813A93E4A0123CDE90021A8
:102FD000029002221146104605F088FF3A4804A9E3
:102FE00011AA0123CDE9002102901A4619460220B8
:102FF00005F07CFF04A831491EAA0123CDE9002178
:10300000029002221146184605F070FF58460499B6
:10301000FDF773F9049011A804A92B4A0123CDE907
:10302000002102901A461946022005F05FFF234A4C
:1030300011991068FDF70FF91F4908601F4A12998E
:103040005068FDF708F91C4948600BA81EA91E4AE4
:103050000223CDE90021029001221146184605F015
:1030600045FF0B992798FDF748F90B900C99289884
:10307000FDF743F90C900D992998FDF73EF90D9055
:1030800027AA0E99D068FDF738F90E900C480D4923
:103090000BAA0223CDE9002102901A4619461846D0
:1030A00005F024FF044800682DB0BDE8F08F000053
:1030B0000AD7A33BE0C60008840200208C0200204F
:1030C00094020020B0060020A40200202DE9F04F59
:1030D000ADB0044689469246A3482B90A349D1E956
:1030E0000023D1E90201CDE92723CDE92901CDF85B
:1030F00098A09E4B1033D3E90021D3E90203CDE918
:103100002403CDE922219949203103C9CDE92001C9
:103110009649283103C9CDE91E01944B30330FCBBA
:103120001AAD0FC591484030006819908F4B443359
:10313000D3E90020D3E9021316AD0BC515928B49D4
:10314000543103C9CDE913010020119012900F9062
:1031500010900B900C900D900E9007900890099095
:103160000A900590069004904846FDF73CFB074600
:10317000884684F000400190FDF735FB3A4643460F
:10318000CDE9020103F066FA0546FDF757FB8346D9
:1031900011A8774922AA0123CDE900210290022239
:1031A0001146104605F0A2FE0FA826A920AA012369
:1031B000CDE9002102901A461946022005F096FE3C
:1031C0000F991198FDF747F86A490860109912980D
:1031D000FDF741F8674948600BA8674922AA022316
:1031E000CDE9002102901A461946184605F07EFEE8
:1031F00007A815A90BAA0223CDE9002102901A46BF
:103200001946184605F072FE1A990798FDF723F83B
:103210005A4908601B990898FDF71DF857494860FE
:103220001C990998FDF717F8544988601D990A9868
:10323000FDF711F85149C86005A81EAA0223CDE97F
:10324000002102901A461946012005F04FFE04A8FD
:1032500013A905AA0123CDE90021029002221146FB
:10326000184605F043FE19990498FCF7F4FF05464B
:1032700029464FF07E50FDF778F8049011A813A965
:103280003E4A0123CDE90021029002221146104658
:1032900005F02CFE3A4804A911AA0123CDE900212A
:1032A00002901A461946022005F020FE04A8314972
:1032B0001EAA0123CDE900210290022211461846E0
:1032C00005F014FE58460499FDF717F8049011A86C
:1032D00004A92B4A0123CDE9002102901A46194680
:1032E000022005F003FE234A11991068FCF7B3FF92
:1032F0001F4908601F4A12995068FCF7ACFF1C492F
:1033000048600BA81EA91E4A0223CDE900210290A5
:1033100001221146184605F0E9FD0B992798FCF7A4
:10332000ECFF0B900C992898FCF7E7FF0C900D9997
:103330002998FCF7E2FF0D9027AA0E99D068FCF7B8
:10334000DCFF0E900C480D490BAA0223CDE90021A9
:1033500002901A461946184605F0C8FD0448006850
:103360002DB0BDE8F08F00000AD7A33B3CC7000892
:10337000AC020020B4020020BC020020C0060020E5
:10338000CC02002008B50121042000F08BFD4FF491
:103390008070ADF8000048208DF8030069460248AF
:1033A000FEF7B2FF08BD00000008014010B504465A
:1033B00000F022F801280BD1601C0D490988B1EBFF
:1033C000400F0ADA0A480088401C0949088004E0D6
:1033D000002007490880074908800548008802281E
:1033E00003D101200349088010BD0020FCE7000044
:1033F000CE000020CC00002010B54FF480710448AE
:10340000FFF70DF808B9012010BD0020FCE700000F
:10341000000801401FB50121084600F043FD0121CD
:10342000042000F03FFD4FF48050ADF80C00482020
:103430008DF80F0003A91248FEF766FF0C2100204B
:10344000FEF742FF4FF48050019000208DF80800F5
:103450000C208DF8090001208DF80A0001A8FEF764
:103460004DFE28208DF8000002208DF8010001207B
:103470008DF802008DF80300684600F053F81FBD78
:103480000008014010B5022000F010F8032000F001
:1034900021F8002000F014F8002000F037F8002098
:1034A00000F02BF8002000F01FF810BD38B50446DE
:1034B000032302226B21D0200094FFF730FC38BD9B
:1034C00038B50446022304221C21D0200094FFF7C3
:1034D00026FC38BD38B50446022304221B21D02027
:1034E0000094FFF71CFC38BD10B5044623460122AA
:1034F0003721D020FFF7F3FB10BD10B5044623465B
:1035000005226A21D020FFF7EAFB10BD10B5044662
:10351000234606226B21D020FFF7E1FB10BD00BF40
:10352000FEE7704770B5002100230F22C47804B372
:10353000154C246804F4E064C4F5E064210AC1F188
:103540000403CA40447804FA03F184781440214308
:1035500009010E4C0678A155047804F01F050124DA
:10356000AC4005786D11AD0005F1E025C5F80041CE
:1035700009E0047804F01F050124AC40044D0678EE
:10358000761145F8264070BD0CED00E000E400E047
:1035900080E100E010B5002000F020FF10BDF8B57C
:1035A00007460C4615461E46002C0CDD032C0ADC93
:1035B000601E00EB80004006020E2B4600213846BC
:1035C000009600F001F8F8BD2DE9F04107460C46E1
:1035D00015461E46DDF818800EB1FFF7DBFF2946C1
:1035E000204600F00BFF01220549384600F060FF3D
:1035F000B8F1000F01D000F095F9BDE8F0810000AE
:10360000A400002010B500F013F800F0E9F8012341
:103610001A46194601A0FFF7C2FF10BD6F6C656422
:1036200020696E697420737563636573732100008C
:103630000848806940F0080006498861064800682B
:1036400020F0FF00044908600846006840F033009D
:103650000860704700100240040C014070B5044639
:103660001448006820F0F00012490860084600681D
:1036700040F03000086000200F490860002516E087
:10368000E0090D49091D08606006040E0120FEF7DF
:10369000FCF901200949C1F8A001FEF7F6F9002064
:1036A000054908600120FEF7F0F9681CC5B2082D35
:1036B000E6DB70BD040C0140A08121420080214264
:1036C00010B51648006820F0F0001449086008465C
:1036D000006840F03000086001201149086011487E
:1036E000D0F8240108B9002010BD01200C49091FA1
:1036F0000860FEF7CAF900200A49C1F8A401084889
:103700008038006808B10020EEE70220FEF7BDF91E
:1037100000200349091F08600120E5E7040C01406F
:10372000A48121420080214210B51048006820F099
:10373000F0000E4908600846006840F0300008605C
:1037400000200B4908600B49C1F8A4010220FEF7D4
:103750009CF9012006490860FEF797F90120054908
:10376000C1F8A4010220FEF790F910BD040C01403D
:10377000A08121420080214210B500241548006834
:1037800020F0F000134908600846006840F080000F
:103790000860012010490860FEF777F901200F4901
:1037A000C1F8A001FEF771F90AE0601CC4B2322C26
:1037B00003DDFFF7B9FF002010BD0120FEF765F91A
:1037C0000548803800680028EFD10349091F0860C8
:1037D0000120F1E7040C0140A48121420080214234
:1037E00010B540F6C41400E0641E002CFCD1AE22DB
:1037F00000213C2005F0BCFCA62200213C2005F065
:10380000B7FCAE2200213C2005F0B2FCD5220021FD
:103810003C2005F0ADFC802200213C2005F0A8FCF6
:10382000A82200213C2005F0A3FC1F2200213C20FF
:1038300005F09EFCD32200213C2005F099FC0022DB
:1038400011463C2005F094FC402200213C2005F06C
:103850008FFC8D2200213C2005F08AFC14220021DF
:103860003C2005F085FC202200213C2005F080FC56
:10387000022200213C2005F07BFCA12200213C20FB
:1038800005F076FCC82200213C2005F071FCDA220C
:1038900000213C2005F06CFC022200213C2005F0B8
:1038A00067FC812200213C2005F062FCCF22002130
:1038B0003C2005F05DFCD92200213C2005F058FC9D
:1038C000F12200213C2005F053FCDB2200213C20AA
:1038D00005F04EFC402200213C2005F049FC2E2240
:1038E00000213C2005F044FCA42200213C2005F0EE
:1038F0003FFCA62200213C2005F03AFCAF2200212B
:103900003C2005F035FC002000F068FD00F0E6FDED
:1039100000200349088048800120487110BD000044
:103920009C00002010B500F0D9FD10BD2DE9F0413C
:1039300005460E4617469846FFF7C2FE10B901200D
:10394000BDE8F0816906080EFFF788FEFFF714FF57
:1039500018B9FFF7E9FE0120F2E73046FFF77EFED7
:10396000FFF70AFF00240BE018F80400FFF776FECB
:10397000FFF702FF18B9FFF7D7FE0020E0E7641C4D
:10398000BC42F1DBFFF7D0FE0020D9E70146002959
:1039900002DD01F214507047002902DAA1F214503E
:1039A000F9E70846F7E703461846884200DD08466F
:1039B000904200DA10467047704700002DE9F0434E
:1039C00089B09B4840783038052818D2DFE800F0ED
:1039D0001303070B0F0001209649087013E0022023
:1039E000944908700FE00320924908700BE004200E
:1039F0009049087007E000208E49087003E000201D
:103A00008C49087000BF00BF8948C078312802D1B6
:103A10000520884908708648C078322802D10620DF
:103A2000844908708248FCF702FC15280CD200205B
:103A30008149087050217E48FCF7E2FB7FA001F02D
:103A40000BFD09B0BDE8F08379484079312806D1F3
:103A500000F03CFC00F02AF97DA001F0FDFC744868
:103A6000C079312806D101207B49086078A001F097
:103A7000F3FC09E06E48C079322805D10020764970
:103A8000086073A001F0E8FC6948407A312860D1F1
:103A9000142104A8FCF7B4FB0020029003900090CE
:103AA00001906EA1624800F011FE814609F101000B
:103AB00000B9C6E76A480068A0EB09025C4800EB61
:103AC000090104A8FCF783FB66A104A800F0FEFD31
:103AD0000446601C00B9B4E7A21E0DF1120102A851
:103AE000FCF775FB02A802F083FE074600225E4B3E
:103AF000FCF720FD0546FCF7A1FE5C490860142197
:103B000004A8FCF77DFB09EB0400554B1B681A1A4F
:103B1000474848442044411C04A8FCF758FB51A1E5
:103B200004A800F0D3FD0446601C00B989E7A21E7A
:103B30000DF112016846FCF74AFB684602F058FE98
:103B40000546FCF77BFE4A49086041A001F084FC71
:103B500000BF3748C07A312860D1142104A8FCF78F
:103B60004FFB0020029003900090019041A130484B
:103B700000F0ACFD814609F1010000B961E7384869
:103B80000068A0EB09022A4800EB090104A8FCF731
:103B90001EFB34A104A800F099FD0446601C00B986
:103BA0004FE7A21E0DF1120102A8FCF710FB02A8BC
:103BB00002F01EFE074600222B4BFCF7BBFC05461D
:103BC000FCF73CFE2C490860142104A8FCF718FB04
:103BD00009EB0400224B1B681A1A1548484420447C
:103BE000411C04A8FCF7F3FA24A104A800F06EFD20
:103BF0000446601C00B924E7A21E0DF112016846BC
:103C0000FCF7E5FA684602F0F3FD0546FCF716FE00
:103C10001B4908600EA001F01FFC00BF00200649F0
:103C2000087050210248FCF7EBFA00BF09E70000DA
:103C300018060020940100208401002024526563AE
:103C4000656976655061636B4572726F722300001F
:103C5000244F4B2300000000800100204150000051
:103C6000900100202C000000000059404401002079
:103C700048010020565000004C01002023000000A5
:103C80005001002010B506480268521C054906483C
:103C9000FCF79DFA50210348FCF7B2FA10BD000072
:103CA00088010020C80500201806002070B53221C8
:103CB0005148FCF7A5FA504850A10968016000215D
:103CC0004F480068FCF7E0FD15D84E494C480068A5
:103CD000FCF7D0FD0FD84C4949480068FCF745FB7C
:103CE0000646FCF780FD044622460B4647A149489C
:103CF00001F016FD03E048A001F0AEFB70BD00210D
:103D000049480068FCF7C0FD11D83F4946480068A3
:103D1000FCF7B0FD0BD844480068FCF764FD04468E
:103D200022460B4639A1414801F0FAFC03E03AA0D3
:103D300001F092FBE2E700213D480068FCF7A4FD9A
:103D400015D830493A480068FCF794FD0FD82E4941
:103D500037480068FCF709FB0646FCF744FD0446BB
:103D600022460B4629A1334801F0DAFC03E02AA0E1
:103D700001F072FBC2E700212F480068FCF784FDC8
:103D800011D821492C480068FCF774FD0BD82A484B
:103D90000068FCF728FD044622460B461BA1274875
:103DA00001F0BEFC03E01CA001F056FBA6E7194998
:103DB0001148FCF730FA22A10F48FCF72CFA1B49F6
:103DC0000D48FCF728FA1FA10B48FCF724FA194903
:103DD0000948FCF720FA1CA10748FCF71CFA174910
:103DE0000548FCF718FA0FA10348FCF714FA02483B
:103DF00001F032FB00BF81E7950100202441500013
:103E00004401002000409C460000C84225332E3269
:103E10006600000068060020244765745049444548
:103E200072726F72230000004801002072060020A9
:103E30004C0100207C060020500100208606002056
:103E40002C4144002C5650002C56490001460020BD
:103E5000034A506820F44040084350607047000017
:103E60000010024029B1064AD2690243044BDA61CC
:103E700004E0034AD2698243014BDA6170470000D3
:103E80000010024029B1064A12690243044B1A612C
:103E900004E0034A12698243014B1A617047000033
:103EA0000010024029B1064A92690243044B9A610C
:103EB00004E0034A92698243014B9A617047000013
:103EC0000010024029B1064AD2680243044BDA606E
:103ED00004E0034AD2688243014BDA607047000075
:103EE0000010024030B500210022002400232D4D97
:103EF0006D6805F00C0121B1042905D0082923D1F2
:103F000005E0294D056022E0274D05601FE0254DA5
:103F10006D6805F47012234D6D6805F48034022538
:103F200005EB92421CB9214D554305600BE01D4D38
:103F30006D6805F400351DB11C4D5543056002E068
:103F4000194D5543056002E0174D056000BF00BFE5
:103F5000144D6D6805F0F0010909154D6B5C05689D
:103F6000DD4045600F4D6D6805F4E061090A104DB4
:103F70006B5C4568DD4085600A4D6D6805F46051F5
:103F8000C90A0B4D6B5C4568DD40C560054D6D6829
:103F900005F44041890B074D6B5CC568B5FBF3F533
:103FA000056130BD0010024000127A0000093D009A
:103FB00044000020540000202DE9F04F8FB00CA8E1
:103FC00089490DAB08AACDE900108849884802F05C
:103FD00001FF8548008800F4807000287ED0089892
:103FE000FCF789FB04464FF09D41FCF7BEF981497F
:103FF00008600998FCF77FFB04464FF09D41FCF7F1
:10400000B4F97D4908600A98FCF775FB04464FF047
:104010009D41FCF7AAF9794908600B98FCF76BFB06
:1040200004464FF09D41FCF7A0F9754908607148BE
:1040300001684FF08040FCF766F906906F48016810
:104040000698FCF760F982466B4801684FF04040E3
:10405000FCF759F906906A4801680698FCF753F98D
:1040600083465146FCF7F7F80790FCF7BCFB804607
:1040700002F0A8F806464FF06632624BFCF75AFA97
:104080000446FCF7DBFB604908605C4801684FF0C0
:104090008040FCF738F90390584801680398FCF712
:1040A00032F98246544801684FF04040FCF72BF942
:1040B0000390514801680398FCF725F9834651465F
:1040C000FCF71BF981464FF07E51FCF7C4F804461B
:1040D000FCF789FBCDE90401464800E081E0016876
:1040E0004FF08040FCF70FF983464348016858467B
:1040F000FCF709F98146414801684FF08040FCF720
:1041000002F983463E4801685846FCF7FCF88246AF
:104110004946FCF7A0F80446FCF765FB0746DDE9D5
:10412000042302F097FA4FF06632364BCDE90601D0
:10413000FCF700FA0546FCF781FB3449086030487B
:1041400001680068FCF7DFF803902C4801680068FC
:10415000FCF7D9F80290284801680068FCF7D3F80A
:104160008346244801680068FCF7CDF85946019061
:10417000FCF771F882460299FCF7BFF88146039973
:10418000FCF7BBF80446FCF72EFBCDE904011C4804
:10419000016818480068FCF7B6F8824617480168BD
:1041A00015480068FCF7AFF883465146FCF753F812
:1041B00081464FF08041FCF7A6F80446FCF713FB5C
:1041C0000746DDE9042302F045FA4FF066320D4B55
:1041D000CDE90601FCF7AEF90546FCF72FFB0C49CB
:1041E00008600FB0BDE8F08F68000020620000207A
:1041F0005C000020780000207C000020800000206F
:104200008400002066A64C406C0000207000002056
:1042100074000020014611B101290ED106E0094ABF
:10422000128810B20022074B1A8008E0064A128852
:1042300010B20022044B1A8001E0002000BF00BF32
:104240007047000024040040240800402DE9F05F7E
:104250004221D020FEF7BCFB05464121D020FEF7CD
:10426000B7FB05EB00242046FCF745FA82464FF0E9
:104270008E415046FCF708FB05D24FF08F41504667
:10428000FCF73BF882460D495046FCF76EF8834632
:10429000FCF7A9FA80460A4A0A4BFCF7A4F806463E
:1042A0000022094BFCF746F90446FCF7C7FA8246A0
:1042B0005046FCF74CFABDE8F09F00000000AA430E
:1042C000A4703D0AD74342400000244010B5164870
:1042D000016816480068FCF7CDFA03D01248006860
:1042E000124908601048416811480068FCF7C2FA9A
:1042F00003D00D4840680E4908600B4881680D489E
:104300000068FCF7B7FA03D00748806809490860DD
:104310000548C16808480068FCF7ACFA03D00248B9
:10432000C0680549086010BD9006002044010020C7
:10433000480100204C01002050010020F0B5034648
:104340001446802B01DA202900DBF0BD21480079DA
:1043500020B10CB9012000E000200446012C1CD142
:10436000CD1701EB5575ED1003EBC5151A4E755DB4
:104370000A46CE1701EB5676F610A1EBC6070126CA
:10438000BE403543EEB20846CD1701EB5575ED1032
:1043900003EBC515104F7E551AE0CD1701EB55758F
:1043A000ED1003EBC5150C4E755D0A46CE1701EBFB
:1043B0005676F610A1EBC6070126BE40B543084667
:1043C000CE1701EB5676F61003EBC616024FBD551D
:1043D00000BFBAE79C000020EC02002010B50446A4
:1043E0000CB9002000E0FF2002464FF400710248A3
:1043F000FBF7FFFE10BD0000EC020020014A108018
:10440000518070479C0000202DE9F04307460C4680
:1044100090462648008821780844802805DA2348F9
:10442000408861780844202802DB0020BDE8F08342
:10443000002530E0A7F12000617800FB01506168A1
:1044400031F81090002622E009FA06F000F400404E
:1044500058B1164A52882A4491B2144A12883244FA
:1044600090B24246FFF76AFF10E0B8F1000F01D1A9
:10447000012300E000231A460C4B5B882B4499B2C1
:104480000A4B1B88334498B2FFF758FF761C2078FC
:10449000B042D9D86D1C6078A842CBD803480088B8
:1044A00021780844014908803846BFE79C00002075
:1044B00070B504460D4616460AE020783246294675
:1044C000FFF7A2FF2178884201D0207870BD641CDC
:1044D00020780028F1D12078F8E7000010B50024FA
:1044E0001BE004F1B000C2B200213C2004F040FE09
:1044F000002211463C2004F03BFE102200213C200B
:1045000004F036FE0648802101FB04020B464021E0
:104510003C2004F037FE601CC4B2082CE1DB10BD67
:10452000EC0200207047000010B50C480068401EE7
:104530000A4908600A480068012807D1084600684F
:1045400020B9FCF7CDFF074800F086FF034800685C
:1045500010B9C8200149086010BD0000D00100203A
:10456000800100203C05002010B500F001F810BDCE
:104570000CB50020019000903348006840F4803072
:104580003149086000BF3048006800F400300090F6
:104590000198401C0190009818B90198B0F5A06FDF
:1045A000F1D12948006800F4003010B101200090DA
:1045B00001E0002000900098012843D123480068C2
:1045C00040F01000214908600846006820F0030010
:1045D00008600846006840F0020008601A48406819
:1045E000194948600846406848600846406840F4F9
:1045F000806048600846406820F47C1048600846A7
:10460000406840F4E81048600846006840F0807058
:10461000086000BF0C48006800F000700028F9D066
:104620000948406820F00300074948600846406890
:1046300040F00200486000BF0348406800F00C00F2
:104640000828F9D10CBD00000010024000200240F3
:1046500070B505460C4625B900201B490880091D88
:1046600008802CB90020184908310880091D0880ED
:10467000002D09DD284604F093FC1349091D08802C
:104680000020091F088008E000200F49091D08804C
:10469000284604F085FC0C490880002C09DD2046E2
:1046A00004F07EFC0849083108800020091D0880BC
:1046B00009E00020044908310880204604F070FC1D
:1046C00001490C31088070BD3434014030B50346D7
:1046D0000C4600211AE0585C2578A84200D014E06E
:1046E000002206E0521CA05C8D185D5DA84200D03F
:1046F00005E0A05C18B18818185C0028F2D100BF52
:10470000A05C08B9084630BD00BF491C585C0028B1
:10471000E1D1401EF7E7042808D14FF0E0210969F4
:1047200041F004014FF0E022116107E04FF0E02179
:10473000096921F004014FF0E022116170477047D0
:1047400010B51348006840F00100114908600846A0
:104750004068104908400E494860084600680E4904
:1047600008400B4908600846006820F48020086073
:104770000846406820F4FE0048604FF41F0088603F
:10478000FFF7F2FE4FF000600449086010BD000022
:10479000001002400000FFF8FFFFF6FE08ED00E009
:1047A000F0B50C46154600220021068C4FF6FE7728
:1047B0003E400684028B018C4FF60C7632407E1C04
:1047C00006EA03162E433243104EB0420ED0104E6E
:1047D000B0420BD0B0F1804F08D00E4EB04205D0A1
:1047E0000D4EB04202D00D4EB04206D14FF6FD76CE
:1047F000314044F00106314305E04FF6F576314093
:1048000044F00106314302830184F0BD002C0140D5
:10481000003401400004004000080040000C00404B
:10482000F0B50C461546002200210026078C4FF6F5
:10483000EF7C07EA0C070784028B018C4FF6FF77A9
:1048400007EA041640F6FF473A404FF6FF7707EABB
:1048500003373A434FF6FF7707EA05273A43114FEC
:10486000B8420ED0104FB8420BD0B0F1804F08D0F4
:104870000E4FB84205D00E4FB84202D00D4FB8428D
:1048800006D14FF6DF77394046F01007394305E08F
:104890004FF65F77394044F01007394302830184B3
:1048A000F0BD0000002C0140003401400004004035
:1048B00000080040000C0040F0B50C4615460022F0
:1048C00000210026078C4FF6FF6C07EA0C070784CF
:1048D000828B018C4FF6FF7707EA04264FF60C77A0
:1048E0003A404FF6FF7707EA03172F433A43114F39
:1048F000B8420ED0104FB8420BD0B0F1804F08D064
:104900000E4FB84205D00E4FB84202D00D4FB842FC
:1049100006D14FF6FF57394046F48077394305E01A
:104920004FF2FF57394044F4807739438283018442
:10493000F0BD0000002C01400034014000040040A4
:1049400000080040000C0040F0B50C46154600225F
:1049500000210026078C4EF6FF7C07EA0C0707842F
:10496000828B018C4FF6FF7707EA043640F6FF474B
:104970003A404FF6FF7707EA05273A434FF6FF77AD
:1049800007EA03373A43114FB8420ED0104FB842EE
:104990000BD0B0F1804F08D00E4FB84205D00E4F6B
:1049A000B84202D00D4FB84206D14DF6FF773940DC
:1049B00046F48057394305E047F6FF57394044F441
:1049C0008057394382830184F0BD0000002C0140F0
:1049D000003401400004004000080040000C00408A
:1049E00030B587B005460C4604F02AFC0121084684
:1049F000FFF738FAADF80850ADF804400020ADF8E4
:104A00000A00ADF8060001A94FF0804000F07EFCDE
:104A10000420ADF810000020ADF812000120ADF820
:104A200014000020ADF81600ADF8180004A94FF0EE
:104A3000804000F079FA1C208DF8000001208DF8EC
:104A400001008DF802008DF803006846FEF76AFD4C
:104A500001220521880700F0C6FA0121880700F02D
:104A600021F907B030BD00004FF08041088A2C4981
:104A7000097801F0800100294DD100F00101D1B188
:104A80002749097801F04001A9B12549097801F0C9
:104A90003F013F290AD12249098841F08001204A7B
:104AA00011804FF6FF711F4A118004E01C490988EC
:104AB000491C1B4A118000F0040161B318490978B0
:104AC00001F0400199B11649098841F08001144A6A
:104AD00011804FF08041098F124A11804FF08041C0
:104AE000098C21F020014FF08042118413E0002155
:104AF0000B4A11800B4A11800949098841F0400195
:104B0000074A118000214FF0804291841146098CA0
:104B100041F02001118400214FF080421182704742
:104B2000D4000020D60000200448008803480088F4
:104B300020F0010001490880704700001004004087
:104B4000044800880348008820F0010001490880DB
:104B5000704700001008004010B50121274800F000
:104B6000D2F9002849D00121244800F098F82448BF
:104B70000088401C2249088022480078401C2149B6
:104B8000087021480088002804DD1F480088401E66
:104B90001D4908801D48007808B9FCF79BFBFDF70C
:104BA00043FEFFF7C1FC17480078022823DD0020F0
:104BB00014490870FDF72AFE04461548016820468E
:104BC000FBF749FB1249086012480078401C114964
:104BD00008700846007832280DD10F490C4800684B
:104BE000FBF7C3FB0D49086000200949086009492B
:104BF000087004F0DDF901F047FE10BD0010004020
:104C0000C8000020C1000020C20000202C000020AD
:104C1000BC000020C00000200000484234010020F9
:104C20001FB501211020FFF71DF941F61F40ADF817
:104C300004006320ADF8080001A9104800F066FBED
:104C400001210E4800F028F8012211460B4800F01F
:104C5000CAF936208DF8000004208DF801000220EA
:104C60008DF8020001208DF803006846FEF75AFC1B
:104C70000121024800F016F81FBD0000001000409E
:104C800021B1028842F08002028004E002884FF6DF
:104C90007F731A4002807047CA4302827047CA433A
:104CA0000282704721B1028842F00102028004E0D2
:104CB00002884FF6FE731A400280704731B1B0F897
:104CC000442042F40042A0F8442005E0B0F844201B
:104CD000C2F30E02A0F844207047000010B504464D
:104CE0006848844208D10121C014FFF7EBF8002185
:104CF000E014FFF7E7F8C4E0B4F1804F08D10121D8
:104D00000846FFF7BFF800210120FFF7BBF8B8E025
:104D10005D48844208D101210220FFF7B3F8002149
:104D20000220FFF7AFF8ACE05848844208D10121D7
:104D30000420FFF7A7F800210420FFF7A3F8A0E064
:104D40005348844208D101210820FFF79BF8002135
:104D50000820FFF797F894E04E48844208D10121DB
:104D60001020FFF78FF800211020FFF78BF888E064
:104D70004948844208D101212020FFF783F800210F
:104D80002020FFF77FF87CE04448844208D10121CD
:104D90004014FFF797F800216014FFF793F870E0D4
:104DA0003F48844209D10121C804FFF78BF8002154
:104DB0004FF40020FFF786F863E03A48844209D1B7
:104DC00001210805FFF77EF800214FF48010FFF75E
:104DD00079F856E03448844209D101214805FFF7AB
:104DE00071F800214FF40010FFF76CF849E02F48EC
:104DF000844208D101214020FFF744F800214020DF
:104E0000FFF740F83DE02A48844208D10121802084
:104E1000FFF738F800218020FFF734F831E025480B
:104E2000844208D101218015FFF72CF80021A0153C
:104E3000FFF728F825E02048844209D10121080421
:104E4000FFF740F800214FF48030FFF73BF818E0FF
:104E50001A48844209D101214804FFF733F80021A0
:104E60004FF40030FFF72EF80BE01548844208D1CC
:104E700001218804FFF726F800214FF48020FFF776
:104E800021F810BD002C0140000400400008004043
:104E9000000C0040001000400014004000340140AD
:104EA000004C0140005001400054014000180040F7
:104EB000001C004000200040004001400044014030
:104EC00000480140F0B50C4615461E460021002260
:104ED00000230189028B038C4FF6F8773940214378
:104EE0004FF6FC473A4040F201173A434FF6DD7760
:104EF0003B404FF6FF7707EA06172F433B430181FC
:104F000002830384F0BD30B5024600200023002454
:104F1000158A05EA0103958905EA010413B10CB16C
:104F2000012000E0002030BD70B505460C46244845
:104F300085420ED0234885420BD0B5F1804F08D072
:104F40002148854205D02148854202D0204885422B
:104F500000D100E000BF208850B92389A288618871
:104F60002846FFF71DFCE188284600F0A2F925E05D
:104F7000208804280AD12389A28861882846FFF75F
:104F80004FFCE188284600F09DF917E020880828AA
:104F90000AD12389A28861882846FFF78DFCE18821
:104FA000284600F09CF909E02389A28861882846F8
:104FB000FFF7CAFCE188284600F09AF970BD0000AE
:104FC000002C014000340140000400400008004073
:104FD000000C0040002101804180012181800021DE
:104FE000C180018170471AB183890B43838102E03C
:104FF00083898B438381704770B50024002200238E
:10500000058C4FF6FE7635400584028C8388048B30
:105010004FF68F752C40B51E2C400D882C43751E05
:105020002A400D892A434D882A43144DA8420BD0AB
:10503000134DA84208D0134DA84205D0124DA842E6
:1050400002D0124DA84213D14FF6F7752A404D8970
:105050002A434FF6FB752A408D882A434FF6FF6599
:105060002B404FF6FF552B408D892B43CD892B4389
:1050700083800483CD888586028470BD002C014026
:10508000003401400040014000440140004801401C
:105090000A460021018B4FF6F77319401143018333
:1050A0007047000070B5002400220023058C4FF6E5
:1050B000EF7635400584028C8388048B48F6FF75B3
:1050C0002C404FF6FF452C400D884FF6FF7606EA40
:1050D00005252C434FF6DF752A400D8906EA051594
:1050E0002A434D8806EA05152A43154DA84202D0E9
:1050F000144DA8421DD14FF67F752A404D894FF6B9
:10510000FF7606EA05152A434FF6BF752A408D88BB
:1051100006EA05152A434FF6FF352B404FF2FF757F
:105120002B408D8906EA85052B43CD8906EA850546
:105130002B4383800483CD880587028470BD0000E3
:10514000002C0140003401400A460021018B4FF23F
:10515000FF7319404FF6FF7303EA022319430183DB
:105160007047000070B5002400220023058C4FF624
:10517000FF6635400584028C8388848B4FF68F75DB
:105180002C404FF6FC752C400D882C434FF6FF55F4
:105190002A400D894FF6FF7606EA05252A434D88F9
:1051A00006EA05252A43154DA84202D0144DA8420F
:1051B0001DD14FF2FF752A404D894FF6FF7606EA62
:1051C00005252A434FF6FF352A408D8806EA052536
:1051D0002A434EF6FF752B404DF6FF752B408D8907
:1051E00006EA05152B43CD8906EA05152B43838076
:1051F0008483CD888587028470BD0000002C014027
:10520000003401400A460021818B4FF6F7731940A4
:10521000114381837047000070B5002200230024F1
:10522000058C4EF6FF7635400584038C8488828B8E
:1052300048F6FF752A404FF6FF452A400D884FF685
:10524000FF7606EA05252A434DF6FF752B400D89AA
:1052500006EA05352B434D8806EA05352B430B4DF1
:10526000A84202D00A4DA84208D14BF6FF752C4047
:105270008D894FF6FF7606EA85152C43848082835C
:10528000CD88A0F84050038470BD0000002C014080
:10529000003401400A460021818B4FF2FF73194010
:1052A0004FF6FF7303EA0223194381837047818419
:1052B0007047028B4FF6F3731A400283028B0A4346
:1052C00002837047028B4FF2FF331A400283028B36
:1052D0004FF6FF7303EA01231A4302837047828B60
:1052E0004FF6F3731A408283828B0A43828370479E
:1052F000828B4FF2FF331A408283828B4FF6FF730B
:1053000003EA01231A4382837047000000220288C7
:105310001D4B98420ED01D4B98420BD0B0F1804FE0
:1053200008D01B4B984205D01A4B984202D01A4B1A
:10533000984204D14FF68F731A404B881A43174B8B
:10534000984207D0164B984204D04FF6FF431A40BC
:10535000CB881A4302808B8883850B8803850A4B90
:1053600098420BD0094B984208D00E4B984205D07A
:105370000D4B984202D00D4B984201D10B7A038617
:105380000123838270470000002C0140003401405B
:105390000004004000080040000C004000100040E5
:1053A000001400400040014000440140004801401A
:1053B0004FF6FF71818000210180C1804180017220
:1053C000704700002DE9F0410546884613492846FC
:1053D000FBF750FA13D312492846FBF755FA0ED3C0
:1053E00010480068FBF7FFF906464FF033320E4BCA
:1053F000FBF70CFA03D30D48007801280AD10124E9
:1054000000200B490880091D0880091D0880091D1E
:10541000088000E000242046BDE8F081000020C2A2
:105420000000204234010020333323402C000020B0
:105430003434014010B540F22551064800F098F888
:1054400030B1044800F050F9C4B2204601F072FABD
:1054500010BD00000050004070B505462C4603E02A
:10546000207800F04DF8641C20780028F8D170BD39
:1054700010B5002440F22551054800F079F830B10C
:10548000034800F031F9C4B2204600F003F810BD23
:105490000038014010B5044600BF8021044800F0E8
:1054A0005AF80028F9D02146014800F022F910BD31
:1054B0000038014010B540F22551084800F058F876
:1054C00058B140F22551054800F02AF8034800F091
:1054D0000BF9C4B2204600F003F810BD00440040B0
:1054E00010B5044600BF8021044800F034F80028BD
:1054F000F9D02146014800F0FCF810BD00440040FE
:1055000010B504462146054800F0F3F800BF4021DD
:10551000024800F020F80128F9D110BD00500040E9
:1055200010B50022002340F66A14A14200D100BF4A
:105530000A1201249440A3B2DC43048010BD21B1BF
:10554000828942F40052828104E082894DF6FF7321
:105550001A408281704702460020B1F5007F00D1D9
:1055600000BF13880B400BB1012000E00020704702
:1055700070B50246002400230025002040F66A167C
:10558000B14200D100BFC1F3421501F01F03012653
:1055900006FA03F3012D02D19689334006E0022D6D
:1055A00002D1168A334001E0968A33400C1201265C
:1055B00006FA04F41688344013B10CB1012000E05F
:1055C000002070BDF0B50346002400260025002011
:1055D00040F66A17B94200D100BF1846C1F3421421
:1055E00001F01F06012707FA06F5012C01D10C3046
:1055F00004E0022C01D1103000E014301AB1076829
:105600002F43076002E00768AF430760F0BD00006A
:105610002DE9F04786B005460E460024A24600BF9D
:10562000A1460027B08900B100BF2F462C8A4CF656
:10563000FF700440F08804432C82AC894EF6F310CE
:105640000440B08831890843718908430443AC8120
:10565000AC8A4FF6FF400440B0890443AC8201A8F5
:10566000FEF740FC1F48874202D1DDF810A001E0A0
:10567000DDF80CA0A88900F4004040B10AEBCA0094
:1056800000EB0A1031684900B0FBF1F807E00AEBC3
:10569000CA0000EB0A1031688900B0FBF1F8642001
:1056A000B8FBF0F004012009642101FB1089A889EE
:1056B00000F4004040B1322000EBC900B0FBF1F033
:1056C00000F00700044308E0322000EB09106421D9
:1056D000B0FBF1F000F00F0004432C8106B0BDE8F0
:1056E000F08700000038014001468888C0F30800B8
:1056F0007047C1F308028280704700BFFEE70000D8
:105700000FB4054B10B503A9044A029800F07EF9C6
:1057100010BC5DF814FB000085760008980000209E
:105720000FB4084B10B504A902AA039800F06EF953
:10573000044602A9002000F0ECFC204610BC5DF8F5
:1057400014FB000013610008490050EAC12018BF93
:1057500004204A0D18BF40F0010040F2FF72B2EB86
:10576000515F08BF40F00200012808BF05207047C4
:105770002DE9F0414F1E00EBC7010446D1E90001BD
:1057800015461E4637F006020DD02A463346FAF774
:10579000D1FE7F1E04EBC703D3E90023FAF723FEF3
:1057A00037F00602F1D1022F25D0042F13D0062F97
:1057B00018BFBDE8F0812A463346FAF7BBFED4E9AC
:1057C0000A23FAF710FE2A463346FAF7B3FED4E965
:1057D0000823FAF708FE2A463346FAF7ABFED4E967
:1057E0000623FAF700FE2A463346FAF7A3FED4E969
:1057F0000423FAF7F8FD2A463346FAF79BFED4E96C
:105800000223FAF7F0FD2A463346FAF793FED4E96D
:105810000023BDE8F041FAF7E6BD0122FBF798B995
:10582000FAF7E1BD0022134610461146FAF7F4BE1E
:10583000024A00201107FBF78BB9000001FDFFFFB2
:105840000148006870470000D402002002E008C848
:10585000121F08C1002AFAD170477047002001E0EA
:1058600001C1121F002AFBD17047000001490860E6
:1058700070470000D40200202DE9FF5F82B00021B4
:10588000DDE90430020DDDF840B0034318D044F6E2
:105890001050A2F2FF3242431514119801281FD074
:1058A000A5EB0B00401C5FEA000A4FF000064E4FCC
:1058B000DFF83891B046504615D5CAF1000413E020
:1058C000119801244AA3012801D16FEA0B01029823
:1058D000119AC0E90031C0E9024206B0BDE8F09F6C
:1058E000CBF10000DFE704460021404A491842EBB3
:1058F0000450CDE9001012E0E00707D032463B46E5
:1059000040464946FAF716FE8046894632463B46EF
:1059100010461946FAF70EFE06460F466410002C94
:10592000EAD1DDE90401DDE90023BAF1000F06DA6E
:10593000FAF700FE42464B46FAF7FCFD05E0FAF79F
:105940006BFE42464B46FAF767FE04460E460022BF
:10595000284BFBF72DF903D84FF0FF30014607E045
:105960000022254B20463146FAF73DFDFBF707F9AB
:10597000102409E0002C0ADB0A220023FAF7A4FF16
:10598000039B30321A55641E50EA0102F2D1641CA6
:10599000039AC4F111031444119A012A03D001227D
:1059A00008430DD10AE0084304D000204FF0110B4A
:1059B000119072E7A3EB0B056D1E0DE05B4504DD56
:1059C0004FF0000205F1010504E003DA4FF0000298
:1059D000A5F10105002AECD002981199C0E9023125
:1059E000C0E9004579E70000000014400000F03FE6
:1059F000300000000000F0430000E03F30380A288B
:105A000001D2012070470020704700002DE9FF4FB0
:105A100095B09A46884606460025EEE1252877D1BE
:105A200000242746F94A0121039400E0044316F8B4
:105A3000013F203B01FA03F01042F7D130782A28C9
:105A400011D06FF02F033078A0F13002092A16D858
:105A5000039A44F0020402EB820203EB4202104478
:105A6000761C0390EFE758F8042B0392002A03DA20
:105A7000504244F40054039044F00204761C307801
:105A80002E2816D116F8010F44F004042A280DD050
:105A90006FF02F023078A0F13003092B09D807EB03
:105AA000870302EB4303C718761CF3E758F8047B1F
:105AB000761C30786C280FD006DC4C2817D068286C
:105AC0000DD06A2814D104E0742810D07A280FD1A0
:105AD0000DE044F400140AE044F4801401E044F4BE
